{
  "contractName": "BNBFactory",
  "abi": [
    {
      "inputs": [
        {
          "internalType": "address payable",
          "name": "wallet",
          "type": "address"
        },
        {
          "internalType": "uint256",
          "name": "startDate",
          "type": "uint256"
        }
      ],
      "stateMutability": "nonpayable",
      "type": "constructor"
    },
    {
      "anonymous": false,
      "inputs": [
        {
          "indexed": true,
          "internalType": "address",
          "name": "user",
          "type": "address"
        },
        {
          "indexed": false,
          "internalType": "uint256",
          "name": "totalAmount",
          "type": "uint256"
        }
      ],
      "name": "FeePayed",
      "type": "event"
    },
    {
      "anonymous": false,
      "inputs": [
        {
          "indexed": true,
          "internalType": "address",
          "name": "user",
          "type": "address"
        },
        {
          "indexed": false,
          "internalType": "uint8",
          "name": "plan",
          "type": "uint8"
        },
        {
          "indexed": false,
          "internalType": "uint256",
          "name": "percent",
          "type": "uint256"
        },
        {
          "indexed": false,
          "internalType": "uint256",
          "name": "amount",
          "type": "uint256"
        },
        {
          "indexed": false,
          "internalType": "uint256",
          "name": "profit",
          "type": "uint256"
        },
        {
          "indexed": false,
          "internalType": "uint256",
          "name": "start",
          "type": "uint256"
        },
        {
          "indexed": false,
          "internalType": "uint256",
          "name": "finish",
          "type": "uint256"
        }
      ],
      "name": "NewDeposit",
      "type": "event"
    },
    {
      "anonymous": false,
      "inputs": [
        {
          "indexed": false,
          "internalType": "address",
          "name": "user",
          "type": "address"
        }
      ],
      "name": "Newbie",
      "type": "event"
    },
    {
      "anonymous": false,
      "inputs": [
        {
          "indexed": true,
          "internalType": "address",
          "name": "referrer",
          "type": "address"
        },
        {
          "indexed": true,
          "internalType": "address",
          "name": "referral",
          "type": "address"
        },
        {
          "indexed": true,
          "internalType": "uint256",
          "name": "level",
          "type": "uint256"
        },
        {
          "indexed": false,
          "internalType": "uint256",
          "name": "amount",
          "type": "uint256"
        }
      ],
      "name": "RefBonus",
      "type": "event"
    },
    {
      "anonymous": false,
      "inputs": [
        {
          "indexed": true,
          "internalType": "address",
          "name": "user",
          "type": "address"
        },
        {
          "indexed": false,
          "internalType": "uint256",
          "name": "amount",
          "type": "uint256"
        }
      ],
      "name": "Withdrawn",
      "type": "event"
    },
    {
      "inputs": [],
      "name": "INVEST_MAX_AMOUNT",
      "outputs": [
        {
          "internalType": "uint256",
          "name": "",
          "type": "uint256"
        }
      ],
      "stateMutability": "view",
      "type": "function"
    },
    {
      "inputs": [],
      "name": "INVEST_MIN_AMOUNT",
      "outputs": [
        {
          "internalType": "uint256",
          "name": "",
          "type": "uint256"
        }
      ],
      "stateMutability": "view",
      "type": "function"
    },
    {
      "inputs": [],
      "name": "PERCENTS_DIVIDER",
      "outputs": [
        {
          "internalType": "uint256",
          "name": "",
          "type": "uint256"
        }
      ],
      "stateMutability": "view",
      "type": "function"
    },
    {
      "inputs": [],
      "name": "PERCENT_STEP",
      "outputs": [
        {
          "internalType": "uint256",
          "name": "",
          "type": "uint256"
        }
      ],
      "stateMutability": "view",
      "type": "function"
    },
    {
      "inputs": [],
      "name": "PROJECT_FEE",
      "outputs": [
        {
          "internalType": "uint256",
          "name": "",
          "type": "uint256"
        }
      ],
      "stateMutability": "view",
      "type": "function"
    },
    {
      "inputs": [
        {
          "internalType": "uint256",
          "name": "",
          "type": "uint256"
        }
      ],
      "name": "REFERRAL_PERCENTS",
      "outputs": [
        {
          "internalType": "uint256",
          "name": "",
          "type": "uint256"
        }
      ],
      "stateMutability": "view",
      "type": "function"
    },
    {
      "inputs": [],
      "name": "TIME_STEP",
      "outputs": [
        {
          "internalType": "uint256",
          "name": "",
          "type": "uint256"
        }
      ],
      "stateMutability": "view",
      "type": "function"
    },
    {
      "inputs": [],
      "name": "commissionWallet",
      "outputs": [
        {
          "internalType": "address payable",
          "name": "",
          "type": "address"
        }
      ],
      "stateMutability": "view",
      "type": "function"
    },
    {
      "inputs": [],
      "name": "getContractBalance",
      "outputs": [
        {
          "internalType": "uint256",
          "name": "",
          "type": "uint256"
        }
      ],
      "stateMutability": "view",
      "type": "function"
    },
    {
      "inputs": [
        {
          "internalType": "uint8",
          "name": "plan",
          "type": "uint8"
        }
      ],
      "name": "getPercent",
      "outputs": [
        {
          "internalType": "uint256",
          "name": "",
          "type": "uint256"
        }
      ],
      "stateMutability": "view",
      "type": "function"
    },
    {
      "inputs": [
        {
          "internalType": "uint8",
          "name": "plan",
          "type": "uint8"
        }
      ],
      "name": "getPlanInfo",
      "outputs": [
        {
          "internalType": "uint256",
          "name": "time",
          "type": "uint256"
        },
        {
          "internalType": "uint256",
          "name": "percent",
          "type": "uint256"
        }
      ],
      "stateMutability": "view",
      "type": "function"
    },
    {
      "inputs": [
        {
          "internalType": "uint8",
          "name": "plan",
          "type": "uint8"
        },
        {
          "internalType": "uint256",
          "name": "deposit",
          "type": "uint256"
        }
      ],
      "name": "getResult",
      "outputs": [
        {
          "internalType": "uint256",
          "name": "percent",
          "type": "uint256"
        },
        {
          "internalType": "uint256",
          "name": "profit",
          "type": "uint256"
        },
        {
          "internalType": "uint256",
          "name": "finish",
          "type": "uint256"
        }
      ],
      "stateMutability": "view",
      "type": "function"
    },
    {
      "inputs": [
        {
          "internalType": "address",
          "name": "userAddress",
          "type": "address"
        }
      ],
      "name": "getUserAmountOfDeposits",
      "outputs": [
        {
          "internalType": "uint256",
          "name": "",
          "type": "uint256"
        }
      ],
      "stateMutability": "view",
      "type": "function"
    },
    {
      "inputs": [
        {
          "internalType": "address",
          "name": "userAddress",
          "type": "address"
        }
      ],
      "name": "getUserAvailable",
      "outputs": [
        {
          "internalType": "uint256",
          "name": "",
          "type": "uint256"
        }
      ],
      "stateMutability": "view",
      "type": "function"
    },
    {
      "inputs": [
        {
          "internalType": "address",
          "name": "userAddress",
          "type": "address"
        }
      ],
      "name": "getUserCheckpoint",
      "outputs": [
        {
          "internalType": "uint256",
          "name": "",
          "type": "uint256"
        }
      ],
      "stateMutability": "view",
      "type": "function"
    },
    {
      "inputs": [
        {
          "internalType": "address",
          "name": "userAddress",
          "type": "address"
        },
        {
          "internalType": "uint256",
          "name": "index",
          "type": "uint256"
        }
      ],
      "name": "getUserDepositInfo",
      "outputs": [
        {
          "internalType": "uint8",
          "name": "plan",
          "type": "uint8"
        },
        {
          "internalType": "uint256",
          "name": "percent",
          "type": "uint256"
        },
        {
          "internalType": "uint256",
          "name": "amount",
          "type": "uint256"
        },
        {
          "internalType": "uint256",
          "name": "profit",
          "type": "uint256"
        },
        {
          "internalType": "uint256",
          "name": "start",
          "type": "uint256"
        },
        {
          "internalType": "uint256",
          "name": "finish",
          "type": "uint256"
        }
      ],
      "stateMutability": "view",
      "type": "function"
    },
    {
      "inputs": [
        {
          "internalType": "address",
          "name": "userAddress",
          "type": "address"
        }
      ],
      "name": "getUserDividends",
      "outputs": [
        {
          "internalType": "uint256",
          "name": "",
          "type": "uint256"
        }
      ],
      "stateMutability": "view",
      "type": "function"
    },
    {
      "inputs": [
        {
          "internalType": "address",
          "name": "userAddress",
          "type": "address"
        }
      ],
      "name": "getUserDownlineCount",
      "outputs": [
        {
          "internalType": "uint256",
          "name": "",
          "type": "uint256"
        },
        {
          "internalType": "uint256",
          "name": "",
          "type": "uint256"
        },
        {
          "internalType": "uint256",
          "name": "",
          "type": "uint256"
        }
      ],
      "stateMutability": "view",
      "type": "function"
    },
    {
      "inputs": [
        {
          "internalType": "address",
          "name": "userAddress",
          "type": "address"
        }
      ],
      "name": "getUserReferralBonus",
      "outputs": [
        {
          "internalType": "uint256",
          "name": "",
          "type": "uint256"
        }
      ],
      "stateMutability": "view",
      "type": "function"
    },
    {
      "inputs": [
        {
          "internalType": "address",
          "name": "userAddress",
          "type": "address"
        }
      ],
      "name": "getUserReferralTotalBonus",
      "outputs": [
        {
          "internalType": "uint256",
          "name": "",
          "type": "uint256"
        }
      ],
      "stateMutability": "view",
      "type": "function"
    },
    {
      "inputs": [
        {
          "internalType": "address",
          "name": "userAddress",
          "type": "address"
        }
      ],
      "name": "getUserReferralWithdrawn",
      "outputs": [
        {
          "internalType": "uint256",
          "name": "",
          "type": "uint256"
        }
      ],
      "stateMutability": "view",
      "type": "function"
    },
    {
      "inputs": [
        {
          "internalType": "address",
          "name": "userAddress",
          "type": "address"
        }
      ],
      "name": "getUserReferrer",
      "outputs": [
        {
          "internalType": "address",
          "name": "",
          "type": "address"
        }
      ],
      "stateMutability": "view",
      "type": "function"
    },
    {
      "inputs": [
        {
          "internalType": "address",
          "name": "userAddress",
          "type": "address"
        }
      ],
      "name": "getUserTotalDeposits",
      "outputs": [
        {
          "internalType": "uint256",
          "name": "amount",
          "type": "uint256"
        }
      ],
      "stateMutability": "view",
      "type": "function"
    },
    {
      "inputs": [
        {
          "internalType": "address",
          "name": "referrer",
          "type": "address"
        },
        {
          "internalType": "uint8",
          "name": "plan",
          "type": "uint8"
        }
      ],
      "name": "invest",
      "outputs": [],
      "stateMutability": "payable",
      "type": "function"
    },
    {
      "inputs": [],
      "name": "startUNIX",
      "outputs": [
        {
          "internalType": "uint256",
          "name": "",
          "type": "uint256"
        }
      ],
      "stateMutability": "view",
      "type": "function"
    },
    {
      "inputs": [],
      "name": "totalRefBonus",
      "outputs": [
        {
          "internalType": "uint256",
          "name": "",
          "type": "uint256"
        }
      ],
      "stateMutability": "view",
      "type": "function"
    },
    {
      "inputs": [],
      "name": "totalStaked",
      "outputs": [
        {
          "internalType": "uint256",
          "name": "",
          "type": "uint256"
        }
      ],
      "stateMutability": "view",
      "type": "function"
    },
    {
      "inputs": [],
      "name": "withdraw",
      "outputs": [],
      "stateMutability": "nonpayable",
      "type": "function"
    }
  ],
  "bytecode": "0x60806040526040518060600160405280603260ff168152602001601960ff168152602001600560ff1681525060009060036200003d92919062000329565b503480156200004b57600080fd5b506040516200268e3803806200268e833981810160405260408110156200007157600080fd5b8101908080519060200190929190805190602001909291905050506200009d826200031660201b60201c565b15620000a857600080fd5b60008111620000b657600080fd5b81600660006101000a81548173ffffffffffffffffffffffffffffffffffffffff021916908373ffffffffffffffffffffffffffffffffffffffff1602179055508060058190555060036040518060400160405280600e815260200160328152509080600181540180825580915050600190039060005260206000209060020201600090919091909150600082015181600001556020820151816001015550506003604051806040016040528060158152602001604181525090806001815401808255809150506001900390600052602060002090600202016000909190919091506000820151816000015560208201518160010155505060036040518060400160405280601c8152602001605081525090806001815401808255809150506001900390600052602060002090600202016000909190919091506000820151816000015560208201518160010155505060036040518060400160405280600e815260200160328152509080600181540180825580915050600190039060005260206000209060020201600090919091909150600082015181600001556020820151816001015550506003604051806040016040528060158152602001604181525090806001815401808255809150506001900390600052602060002090600202016000909190919091506000820151816000015560208201518160010155505060036040518060400160405280601c8152602001605081525090806001815401808255809150506001900390600052602060002090600202016000909190919091506000820151816000015560208201518160010155505050506200039f565b600080823b905060008111915050919050565b8280548282559060005260206000209081019282156200036d579160200282015b828111156200036c578251829060ff169055916020019190600101906200034a565b5b5090506200037c919062000380565b5090565b5b808211156200039b57600081600090555060010162000381565b5090565b6122df80620003af6000396000f3fe6080604052600436106101b75760003560e01c80636bb18556116100ec578063a8aeb6c21161008a578063c234123811610064578063c234123814610902578063d7ffca911461092d578063e262113e14610992578063e85abe09146109bd576101b7565b8063a8aeb6c2146107af578063aecaa63414610814578063c0806b031461086d576101b7565b80637e3abeea116100c65780637e3abeea1461068c578063817b1cd2146106f157806397c0262a1461071c578063a51b95331461075d576101b7565b80636bb18556146105d15780636f9fb98a146106365780637d8cb7a214610661576101b7565b806348c3720311610159578063581c5ae611610133578063581c5ae61461049c5780635936cf61146104ed578063600d20ce1461055757806369b11dd5146105a6576101b7565b806348c37203146103e157806348d44bd11461044657806357fc86b414610471576101b7565b8063153ab9df11610195578063153ab9df146102bf57806332bc298c1461032457806336144c9a1461034f5780633ccfd60b146103ca576101b7565b806301c234a8146101bc57806303a93c0c146101e7578063040a772e1461025a575b600080fd5b3480156101c857600080fd5b506101d1610a22565b6040518082815260200191505060405180910390f35b3480156101f357600080fd5b506102366004803603602081101561020a57600080fd5b81019080803573ffffffffffffffffffffffffffffffffffffffff169060200190929190505050610a28565b60405180848152602001838152602001828152602001935050505060405180910390f35b34801561026657600080fd5b506102a96004803603602081101561027d57600080fd5b81019080803573ffffffffffffffffffffffffffffffffffffffff169060200190929190505050610b2a565b6040518082815260200191505060405180910390f35b3480156102cb57600080fd5b5061030e600480360360208110156102e257600080fd5b81019080803573ffffffffffffffffffffffffffffffffffffffff169060200190929190505050610dda565b6040518082815260200191505060405180910390f35b34801561033057600080fd5b50610339610e06565b6040518082815260200191505060405180910390f35b34801561035b57600080fd5b5061039e6004803603602081101561037257600080fd5b81019080803573ffffffffffffffffffffffffffffffffffffffff169060200190929190505050610e0d565b604051808273ffffffffffffffffffffffffffffffffffffffff16815260200191505060405180910390f35b3480156103d657600080fd5b506103df610e79565b005b3480156103ed57600080fd5b506104306004803603602081101561040457600080fd5b81019080803573ffffffffffffffffffffffffffffffffffffffff16906020019092919050505061102a565b6040518082815260200191505060405180910390f35b34801561045257600080fd5b5061045b611076565b6040518082815260200191505060405180910390f35b34801561047d57600080fd5b5061048661107b565b6040518082815260200191505060405180910390f35b6104eb600480360360408110156104b257600080fd5b81019080803573ffffffffffffffffffffffffffffffffffffffff169060200190929190803560ff169060200190929190505050611080565b005b3480156104f957600080fd5b506105336004803603604081101561051057600080fd5b81019080803560ff169060200190929190803590602001909291905050506119f1565b60405180848152602001838152602001828152602001935050505060405180910390f35b34801561056357600080fd5b506105906004803603602081101561057a57600080fd5b8101908080359060200190929190505050611b55565b6040518082815260200191505060405180910390f35b3480156105b257600080fd5b506105bb611b76565b6040518082815260200191505060405180910390f35b3480156105dd57600080fd5b50610620600480360360208110156105f457600080fd5b81019080803573ffffffffffffffffffffffffffffffffffffffff169060200190929190505050611b7c565b6040518082815260200191505060405180910390f35b34801561064257600080fd5b5061064b611c1c565b6040518082815260200191505060405180910390f35b34801561066d57600080fd5b50610676611c24565b6040518082815260200191505060405180910390f35b34801561069857600080fd5b506106db600480360360208110156106af57600080fd5b81019080803573ffffffffffffffffffffffffffffffffffffffff169060200190929190505050611c30565b6040518082815260200191505060405180910390f35b3480156106fd57600080fd5b50610706611d0b565b6040518082815260200191505060405180910390f35b34801561072857600080fd5b50610731611d11565b604051808273ffffffffffffffffffffffffffffffffffffffff16815260200191505060405180910390f35b34801561076957600080fd5b506107996004803603602081101561078057600080fd5b81019080803560ff169060200190929190505050611d37565b6040518082815260200191505060405180910390f35b3480156107bb57600080fd5b506107fe600480360360208110156107d257600080fd5b81019080803573ffffffffffffffffffffffffffffffffffffffff169060200190929190505050611de4565b6040518082815260200191505060405180910390f35b34801561082057600080fd5b506108506004803603602081101561083757600080fd5b81019080803560ff169060200190929190505050611e33565b604051808381526020018281526020019250505060405180910390f35b34801561087957600080fd5b506108c66004803603604081101561089057600080fd5b81019080803573ffffffffffffffffffffffffffffffffffffffff16906020019092919080359060200190929190505050611e83565b604051808760ff168152602001868152602001858152602001848152602001838152602001828152602001965050505050505060405180910390f35b34801561090e57600080fd5b50610917611fb9565b6040518082815260200191505060405180910390f35b34801561093957600080fd5b5061097c6004803603602081101561095057600080fd5b81019080803573ffffffffffffffffffffffffffffffffffffffff169060200190929190505050611fbf565b6040518082815260200191505060405180910390f35b34801561099e57600080fd5b506109a761200b565b6040518082815260200191505060405180910390f35b3480156109c957600080fd5b50610a0c600480360360208110156109e057600080fd5b81019080803573ffffffffffffffffffffffffffffffffffffffff169060200190929190505050612016565b6040518082815260200191505060405180910390f35b6103e881565b6000806000600460008573ffffffffffffffffffffffffffffffffffffffff1673ffffffffffffffffffffffffffffffffffffffff168152602001908152602001600020600301600060038110610a7b57fe5b0154600460008673ffffffffffffffffffffffffffffffffffffffff1673ffffffffffffffffffffffffffffffffffffffff168152602001908152602001600020600301600160038110610acb57fe5b0154600460008773ffffffffffffffffffffffffffffffffffffffff1673ffffffffffffffffffffffffffffffffffffffff168152602001908152602001600020600301600260038110610b1b57fe5b01549250925092509193909250565b600080600460008473ffffffffffffffffffffffffffffffffffffffff1673ffffffffffffffffffffffffffffffffffffffff1681526020019081526020016000209050600080600090505b8260000180549050811015610dcf57826000018181548110610b9457fe5b90600052602060002090600602016005015483600101541015610dc2576003836000018281548110610bc257fe5b906000526020600020906006020160000160009054906101000a900460ff1660ff161015610d62576000610c536103e8610c45866000018581548110610c0457fe5b906000526020600020906006020160010154876000018681548110610c2557fe5b90600052602060002090600602016002015461206290919063ffffffff16565b6120e890919063ffffffff16565b905060008460010154856000018481548110610c6b57fe5b90600052602060002090600602016004015411610c8c578460010154610cae565b846000018381548110610c9b57fe5b9060005260206000209060060201600401545b9050600042866000018581548110610cc257fe5b90600052602060002090600602016005015410610cdf5742610d01565b856000018481548110610cee57fe5b9060005260206000209060060201600501545b905080821015610d5a57610d57610d4862015180610d3a610d2b868661217790919063ffffffff16565b8761206290919063ffffffff16565b6120e890919063ffffffff16565b8661220090919063ffffffff16565b94505b505050610dc1565b826000018181548110610d7157fe5b906000526020600020906006020160050154421115610dc057610dbd836000018281548110610d9c57fe5b9060005260206000209060060201600301548361220090919063ffffffff16565b91505b5b5b8080600101915050610b76565b508092505050919050565b6000610dff610de883610b2a565b610df184612016565b61220090919063ffffffff16565b9050919050565b6201518081565b6000600460008373ffffffffffffffffffffffffffffffffffffffff1673ffffffffffffffffffffffffffffffffffffffff16815260200190815260200160002060020160009054906101000a900473ffffffffffffffffffffffffffffffffffffffff169050919050565b6000600460003373ffffffffffffffffffffffffffffffffffffffff1673ffffffffffffffffffffffffffffffffffffffff16815260200190815260200160002090506000610ec733610b2a565b90506000610ed433612016565b90506000811115610eff5760008360060181905550610efc818361220090919063ffffffff16565b91505b60008211610f75576040517f08c379a00000000000000000000000000000000000000000000000000000000081526004018080602001828103825260158152602001807f5573657220686173206e6f206469766964656e6473000000000000000000000081525060200191505060405180910390fd5b600047905082811015610f86578092505b4284600101819055503373ffffffffffffffffffffffffffffffffffffffff166108fc849081150290604051600060405180830381858888f19350505050158015610fd5573d6000803e3d6000fd5b503373ffffffffffffffffffffffffffffffffffffffff167f7084f5476618d8e60b11ef0d7d3f06914655adb8793e28ff7f018d4c76d505d5846040518082815260200191505060405180910390a250505050565b6000600460008373ffffffffffffffffffffffffffffffffffffffff1673ffffffffffffffffffffffffffffffffffffffff168152602001908152602001600020600701549050919050565b606481565b600581565b66b1a2bc2ec5000034101561109457600080fd5b674563918244f400003411156110a957600080fd5b60068160ff1610611122576040517f08c379a000000000000000000000000000000000000000000000000000000000815260040180806020018281038252600c8152602001807f496e76616c696420706c616e000000000000000000000000000000000000000081525060200191505060405180910390fd5b600061114c6103e861113e60643461206290919063ffffffff16565b6120e890919063ffffffff16565b9050600660009054906101000a900473ffffffffffffffffffffffffffffffffffffffff1673ffffffffffffffffffffffffffffffffffffffff166108fc829081150290604051600060405180830381858888f193505050501580156111b6573d6000803e3d6000fd5b503373ffffffffffffffffffffffffffffffffffffffff167f2899dc8c12def1caa9accb64257cf2fd9f960f21bb27a560a757eae3c2ec43c1826040518082815260200191505060405180910390a26000600460003373ffffffffffffffffffffffffffffffffffffffff1673ffffffffffffffffffffffffffffffffffffffff1681526020019081526020016000209050600073ffffffffffffffffffffffffffffffffffffffff168160020160009054906101000a900473ffffffffffffffffffffffffffffffffffffffff1673ffffffffffffffffffffffffffffffffffffffff161415611507576000600460008673ffffffffffffffffffffffffffffffffffffffff1673ffffffffffffffffffffffffffffffffffffffff1681526020019081526020016000206000018054905011801561132257503373ffffffffffffffffffffffffffffffffffffffff168473ffffffffffffffffffffffffffffffffffffffff1614155b1561136b57838160020160006101000a81548173ffffffffffffffffffffffffffffffffffffffff021916908373ffffffffffffffffffffffffffffffffffffffff1602179055505b60008160020160009054906101000a900473ffffffffffffffffffffffffffffffffffffffff16905060005b600381101561150457600073ffffffffffffffffffffffffffffffffffffffff168273ffffffffffffffffffffffffffffffffffffffff16146114f2576114366001600460008573ffffffffffffffffffffffffffffffffffffffff1673ffffffffffffffffffffffffffffffffffffffff168152602001908152602001600020600301836003811061142657fe5b015461220090919063ffffffff16565b600460008473ffffffffffffffffffffffffffffffffffffffff1673ffffffffffffffffffffffffffffffffffffffff168152602001908152602001600020600301826003811061148357fe5b0181905550600460008373ffffffffffffffffffffffffffffffffffffffff1673ffffffffffffffffffffffffffffffffffffffff16815260200190815260200160002060020160009054906101000a900473ffffffffffffffffffffffffffffffffffffffff1691506114f7565b611504565b8080600101915050611397565b50505b600073ffffffffffffffffffffffffffffffffffffffff168160020160009054906101000a900473ffffffffffffffffffffffffffffffffffffffff1673ffffffffffffffffffffffffffffffffffffffff16146118265760008160020160009054906101000a900473ffffffffffffffffffffffffffffffffffffffff16905060005b600381101561182357600073ffffffffffffffffffffffffffffffffffffffff168273ffffffffffffffffffffffffffffffffffffffff16146118115760006116086103e86115fa600085815481106115e057fe5b90600052602060002001543461206290919063ffffffff16565b6120e890919063ffffffff16565b905061165f81600460008673ffffffffffffffffffffffffffffffffffffffff1673ffffffffffffffffffffffffffffffffffffffff1681526020019081526020016000206006015461220090919063ffffffff16565b600460008573ffffffffffffffffffffffffffffffffffffffff1673ffffffffffffffffffffffffffffffffffffffff168152602001908152602001600020600601819055506116fa81600460008673ffffffffffffffffffffffffffffffffffffffff1673ffffffffffffffffffffffffffffffffffffffff1681526020019081526020016000206007015461220090919063ffffffff16565b600460008573ffffffffffffffffffffffffffffffffffffffff1673ffffffffffffffffffffffffffffffffffffffff16815260200190815260200160002060070181905550813373ffffffffffffffffffffffffffffffffffffffff168473ffffffffffffffffffffffffffffffffffffffff167fd41f7e766eebcc7ff42b11ac8691bdf864db4afc0c55e71d629d54edce460d98846040518082815260200191505060405180910390a4600460008473ffffffffffffffffffffffffffffffffffffffff1673ffffffffffffffffffffffffffffffffffffffff16815260200190815260200160002060020160009054906101000a900473ffffffffffffffffffffffffffffffffffffffff16925050611816565b611823565b808060010191505061158b565b50505b60008160000180549050141561188d574281600101819055507f9fd565cd14c3c391679eb0cad12a14dcf7534e9d3462bcb9b67a098a9bbbc24a33604051808273ffffffffffffffffffffffffffffffffffffffff16815260200191505060405180910390a15b600080600061189c86346119f1565b925092509250836000016040518060c001604052808860ff16815260200185815260200134815260200184815260200142815260200183815250908060018154018082558091505060019003906000526020600020906006020160009091909190915060008201518160000160006101000a81548160ff021916908360ff1602179055506020820151816001015560408201518160020155606082015181600301556080820151816004015560a0820151816005015550506119693460015461220090919063ffffffff16565b6001819055503373ffffffffffffffffffffffffffffffffffffffff167f84e02daa69bdb087c9fe8d3041abca495512cb14e723070f6d1d4efface82e5d878534864287604051808760ff168152602001868152602001858152602001848152602001838152602001828152602001965050505050505060405180910390a250505050505050565b60008060006119ff85611d37565b925060038560ff161015611a6e57611a6760038660ff1681548110611a2057fe5b906000526020600020906002020160000154611a596103e8611a4b878961206290919063ffffffff16565b6120e890919063ffffffff16565b61206290919063ffffffff16565b9150611b03565b60068560ff161015611b025760005b60038660ff1681548110611a8d57fe5b906000526020600020906002020160000154811015611b0057611af1611ae26103e8611ad487611ac6888b61220090919063ffffffff16565b61206290919063ffffffff16565b6120e890919063ffffffff16565b8461220090919063ffffffff16565b92508080600101915050611a7d565b505b5b611b4c611b3d6201518060038860ff1681548110611b1d57fe5b90600052602060002090600202016000015461206290919063ffffffff16565b4261220090919063ffffffff16565b90509250925092565b60008181548110611b6257fe5b906000526020600020016000915090505481565b60025481565b6000611c15600460008473ffffffffffffffffffffffffffffffffffffffff1673ffffffffffffffffffffffffffffffffffffffff16815260200190815260200160002060060154600460008573ffffffffffffffffffffffffffffffffffffffff1673ffffffffffffffffffffffffffffffffffffffff1681526020019081526020016000206007015461217790919063ffffffff16565b9050919050565b600047905090565b674563918244f4000081565b600080600090505b600460008473ffffffffffffffffffffffffffffffffffffffff1673ffffffffffffffffffffffffffffffffffffffff16815260200190815260200160002060000180549050811015611d0557611cf6600460008573ffffffffffffffffffffffffffffffffffffffff1673ffffffffffffffffffffffffffffffffffffffff1681526020019081526020016000206000018281548110611cd557fe5b9060005260206000209060060201600201548361220090919063ffffffff16565b91508080600101915050611c38565b50919050565b60015481565b600660009054906101000a900473ffffffffffffffffffffffffffffffffffffffff1681565b6000600554421115611dba57611db3611d8362015180611d75611d656005544261217790919063ffffffff16565b600561206290919063ffffffff16565b6120e890919063ffffffff16565b60038460ff1681548110611d9357fe5b90600052602060002090600202016001015461220090919063ffffffff16565b9050611ddf565b60038260ff1681548110611dca57fe5b90600052602060002090600202016001015490505b919050565b6000600460008373ffffffffffffffffffffffffffffffffffffffff1673ffffffffffffffffffffffffffffffffffffffff168152602001908152602001600020600001805490509050919050565b60008060038360ff1681548110611e4657fe5b906000526020600020906002020160000154915060038360ff1681548110611e6a57fe5b9060005260206000209060020201600101549050915091565b6000806000806000806000600460008a73ffffffffffffffffffffffffffffffffffffffff1673ffffffffffffffffffffffffffffffffffffffff1681526020019081526020016000209050806000018881548110611ede57fe5b906000526020600020906006020160000160009054906101000a900460ff169650806000018881548110611f0e57fe5b9060005260206000209060060201600101549550806000018881548110611f3157fe5b9060005260206000209060060201600201549450806000018881548110611f5457fe5b9060005260206000209060060201600301549350806000018881548110611f7757fe5b9060005260206000209060060201600401549250806000018881548110611f9a57fe5b9060005260206000209060060201600501549150509295509295509295565b60055481565b6000600460008373ffffffffffffffffffffffffffffffffffffffff1673ffffffffffffffffffffffffffffffffffffffff168152602001908152602001600020600101549050919050565b66b1a2bc2ec5000081565b6000600460008373ffffffffffffffffffffffffffffffffffffffff1673ffffffffffffffffffffffffffffffffffffffff168152602001908152602001600020600601549050919050565b60008083141561207557600090506120e2565b600082840290508284828161208657fe5b04146120dd576040517f08c379a00000000000000000000000000000000000000000000000000000000081526004018080602001828103825260218152602001806122896021913960400191505060405180910390fd5b809150505b92915050565b600080821161215f576040517f08c379a000000000000000000000000000000000000000000000000000000000815260040180806020018281038252601a8152602001807f536166654d6174683a206469766973696f6e206279207a65726f00000000000081525060200191505060405180910390fd5b600082848161216a57fe5b0490508091505092915050565b6000828211156121ef576040517f08c379a000000000000000000000000000000000000000000000000000000000815260040180806020018281038252601e8152602001807f536166654d6174683a207375627472616374696f6e206f766572666c6f77000081525060200191505060405180910390fd5b600082840390508091505092915050565b60008082840190508381101561227e576040517f08c379a000000000000000000000000000000000000000000000000000000000815260040180806020018281038252601b8152602001807f536166654d6174683a206164646974696f6e206f766572666c6f77000000000081525060200191505060405180910390fd5b809150509291505056fe536166654d6174683a206d756c7469706c69636174696f6e206f766572666c6f77a2646970667358221220ae4285564cb7c17253edaa88f7acc142bca03e6a207a5704975661e38af8f6f664736f6c634300060c0033",
  "deployedBytecode": "0x60806040526040518060600160405280603260ff168152602001601960ff168152602001600560ff1681525060009060036200003d92919062000329565b503480156200004b57600080fd5b506040516200268e3803806200268e833981810160405260408110156200007157600080fd5b8101908080519060200190929190805190602001909291905050506200009d826200031660201b60201c565b15620000a857600080fd5b60008111620000b657600080fd5b81600660006101000a81548173ffffffffffffffffffffffffffffffffffffffff021916908373ffffffffffffffffffffffffffffffffffffffff1602179055508060058190555060036040518060400160405280600e815260200160328152509080600181540180825580915050600190039060005260206000209060020201600090919091909150600082015181600001556020820151816001015550506003604051806040016040528060158152602001604181525090806001815401808255809150506001900390600052602060002090600202016000909190919091506000820151816000015560208201518160010155505060036040518060400160405280601c8152602001605081525090806001815401808255809150506001900390600052602060002090600202016000909190919091506000820151816000015560208201518160010155505060036040518060400160405280600e815260200160328152509080600181540180825580915050600190039060005260206000209060020201600090919091909150600082015181600001556020820151816001015550506003604051806040016040528060158152602001604181525090806001815401808255809150506001900390600052602060002090600202016000909190919091506000820151816000015560208201518160010155505060036040518060400160405280601c8152602001605081525090806001815401808255809150506001900390600052602060002090600202016000909190919091506000820151816000015560208201518160010155505050506200039f565b600080823b905060008111915050919050565b8280548282559060005260206000209081019282156200036d579160200282015b828111156200036c578251829060ff169055916020019190600101906200034a565b5b5090506200037c919062000380565b5090565b5b808211156200039b57600081600090555060010162000381565b5090565b6122df80620003af6000396000f3fe6080604052600436106101b75760003560e01c80636bb18556116100ec578063a8aeb6c21161008a578063c234123811610064578063c234123814610902578063d7ffca911461092d578063e262113e14610992578063e85abe09146109bd576101b7565b8063a8aeb6c2146107af578063aecaa63414610814578063c0806b031461086d576101b7565b80637e3abeea116100c65780637e3abeea1461068c578063817b1cd2146106f157806397c0262a1461071c578063a51b95331461075d576101b7565b80636bb18556146105d15780636f9fb98a146106365780637d8cb7a214610661576101b7565b806348c3720311610159578063581c5ae611610133578063581c5ae61461049c5780635936cf61146104ed578063600d20ce1461055757806369b11dd5146105a6576101b7565b806348c37203146103e157806348d44bd11461044657806357fc86b414610471576101b7565b8063153ab9df11610195578063153ab9df146102bf57806332bc298c1461032457806336144c9a1461034f5780633ccfd60b146103ca576101b7565b806301c234a8146101bc57806303a93c0c146101e7578063040a772e1461025a575b600080fd5b3480156101c857600080fd5b506101d1610a22565b6040518082815260200191505060405180910390f35b3480156101f357600080fd5b506102366004803603602081101561020a57600080fd5b81019080803573ffffffffffffffffffffffffffffffffffffffff169060200190929190505050610a28565b60405180848152602001838152602001828152602001935050505060405180910390f35b34801561026657600080fd5b506102a96004803603602081101561027d57600080fd5b81019080803573ffffffffffffffffffffffffffffffffffffffff169060200190929190505050610b2a565b6040518082815260200191505060405180910390f35b3480156102cb57600080fd5b5061030e600480360360208110156102e257600080fd5b81019080803573ffffffffffffffffffffffffffffffffffffffff169060200190929190505050610dda565b6040518082815260200191505060405180910390f35b34801561033057600080fd5b50610339610e06565b6040518082815260200191505060405180910390f35b34801561035b57600080fd5b5061039e6004803603602081101561037257600080fd5b81019080803573ffffffffffffffffffffffffffffffffffffffff169060200190929190505050610e0d565b604051808273ffffffffffffffffffffffffffffffffffffffff16815260200191505060405180910390f35b3480156103d657600080fd5b506103df610e79565b005b3480156103ed57600080fd5b506104306004803603602081101561040457600080fd5b81019080803573ffffffffffffffffffffffffffffffffffffffff16906020019092919050505061102a565b6040518082815260200191505060405180910390f35b34801561045257600080fd5b5061045b611076565b6040518082815260200191505060405180910390f35b34801561047d57600080fd5b5061048661107b565b6040518082815260200191505060405180910390f35b6104eb600480360360408110156104b257600080fd5b81019080803573ffffffffffffffffffffffffffffffffffffffff169060200190929190803560ff169060200190929190505050611080565b005b3480156104f957600080fd5b506105336004803603604081101561051057600080fd5b81019080803560ff169060200190929190803590602001909291905050506119f1565b60405180848152602001838152602001828152602001935050505060405180910390f35b34801561056357600080fd5b506105906004803603602081101561057a57600080fd5b8101908080359060200190929190505050611b55565b6040518082815260200191505060405180910390f35b3480156105b257600080fd5b506105bb611b76565b6040518082815260200191505060405180910390f35b3480156105dd57600080fd5b50610620600480360360208110156105f457600080fd5b81019080803573ffffffffffffffffffffffffffffffffffffffff169060200190929190505050611b7c565b6040518082815260200191505060405180910390f35b34801561064257600080fd5b5061064b611c1c565b6040518082815260200191505060405180910390f35b34801561066d57600080fd5b50610676611c24565b6040518082815260200191505060405180910390f35b34801561069857600080fd5b506106db600480360360208110156106af57600080fd5b81019080803573ffffffffffffffffffffffffffffffffffffffff169060200190929190505050611c30565b6040518082815260200191505060405180910390f35b3480156106fd57600080fd5b50610706611d0b565b6040518082815260200191505060405180910390f35b34801561072857600080fd5b50610731611d11565b604051808273ffffffffffffffffffffffffffffffffffffffff16815260200191505060405180910390f35b34801561076957600080fd5b506107996004803603602081101561078057600080fd5b81019080803560ff169060200190929190505050611d37565b6040518082815260200191505060405180910390f35b3480156107bb57600080fd5b506107fe600480360360208110156107d257600080fd5b81019080803573ffffffffffffffffffffffffffffffffffffffff169060200190929190505050611de4565b6040518082815260200191505060405180910390f35b34801561082057600080fd5b506108506004803603602081101561083757600080fd5b81019080803560ff169060200190929190505050611e33565b604051808381526020018281526020019250505060405180910390f35b34801561087957600080fd5b506108c66004803603604081101561089057600080fd5b81019080803573ffffffffffffffffffffffffffffffffffffffff16906020019092919080359060200190929190505050611e83565b604051808760ff168152602001868152602001858152602001848152602001838152602001828152602001965050505050505060405180910390f35b34801561090e57600080fd5b50610917611fb9565b6040518082815260200191505060405180910390f35b34801561093957600080fd5b5061097c6004803603602081101561095057600080fd5b81019080803573ffffffffffffffffffffffffffffffffffffffff169060200190929190505050611fbf565b6040518082815260200191505060405180910390f35b34801561099e57600080fd5b506109a761200b565b6040518082815260200191505060405180910390f35b3480156109c957600080fd5b50610a0c600480360360208110156109e057600080fd5b81019080803573ffffffffffffffffffffffffffffffffffffffff169060200190929190505050612016565b6040518082815260200191505060405180910390f35b6103e881565b6000806000600460008573ffffffffffffffffffffffffffffffffffffffff1673ffffffffffffffffffffffffffffffffffffffff168152602001908152602001600020600301600060038110610a7b57fe5b0154600460008673ffffffffffffffffffffffffffffffffffffffff1673ffffffffffffffffffffffffffffffffffffffff168152602001908152602001600020600301600160038110610acb57fe5b0154600460008773ffffffffffffffffffffffffffffffffffffffff1673ffffffffffffffffffffffffffffffffffffffff168152602001908152602001600020600301600260038110610b1b57fe5b01549250925092509193909250565b600080600460008473ffffffffffffffffffffffffffffffffffffffff1673ffffffffffffffffffffffffffffffffffffffff1681526020019081526020016000209050600080600090505b8260000180549050811015610dcf57826000018181548110610b9457fe5b90600052602060002090600602016005015483600101541015610dc2576003836000018281548110610bc257fe5b906000526020600020906006020160000160009054906101000a900460ff1660ff161015610d62576000610c536103e8610c45866000018581548110610c0457fe5b906000526020600020906006020160010154876000018681548110610c2557fe5b90600052602060002090600602016002015461206290919063ffffffff16565b6120e890919063ffffffff16565b905060008460010154856000018481548110610c6b57fe5b90600052602060002090600602016004015411610c8c578460010154610cae565b846000018381548110610c9b57fe5b9060005260206000209060060201600401545b9050600042866000018581548110610cc257fe5b90600052602060002090600602016005015410610cdf5742610d01565b856000018481548110610cee57fe5b9060005260206000209060060201600501545b905080821015610d5a57610d57610d4862015180610d3a610d2b868661217790919063ffffffff16565b8761206290919063ffffffff16565b6120e890919063ffffffff16565b8661220090919063ffffffff16565b94505b505050610dc1565b826000018181548110610d7157fe5b906000526020600020906006020160050154421115610dc057610dbd836000018281548110610d9c57fe5b9060005260206000209060060201600301548361220090919063ffffffff16565b91505b5b5b8080600101915050610b76565b508092505050919050565b6000610dff610de883610b2a565b610df184612016565b61220090919063ffffffff16565b9050919050565b6201518081565b6000600460008373ffffffffffffffffffffffffffffffffffffffff1673ffffffffffffffffffffffffffffffffffffffff16815260200190815260200160002060020160009054906101000a900473ffffffffffffffffffffffffffffffffffffffff169050919050565b6000600460003373ffffffffffffffffffffffffffffffffffffffff1673ffffffffffffffffffffffffffffffffffffffff16815260200190815260200160002090506000610ec733610b2a565b90506000610ed433612016565b90506000811115610eff5760008360060181905550610efc818361220090919063ffffffff16565b91505b60008211610f75576040517f08c379a00000000000000000000000000000000000000000000000000000000081526004018080602001828103825260158152602001807f5573657220686173206e6f206469766964656e6473000000000000000000000081525060200191505060405180910390fd5b600047905082811015610f86578092505b4284600101819055503373ffffffffffffffffffffffffffffffffffffffff166108fc849081150290604051600060405180830381858888f19350505050158015610fd5573d6000803e3d6000fd5b503373ffffffffffffffffffffffffffffffffffffffff167f7084f5476618d8e60b11ef0d7d3f06914655adb8793e28ff7f018d4c76d505d5846040518082815260200191505060405180910390a250505050565b6000600460008373ffffffffffffffffffffffffffffffffffffffff1673ffffffffffffffffffffffffffffffffffffffff168152602001908152602001600020600701549050919050565b606481565b600581565b66b1a2bc2ec5000034101561109457600080fd5b674563918244f400003411156110a957600080fd5b60068160ff1610611122576040517f08c379a000000000000000000000000000000000000000000000000000000000815260040180806020018281038252600c8152602001807f496e76616c696420706c616e000000000000000000000000000000000000000081525060200191505060405180910390fd5b600061114c6103e861113e60643461206290919063ffffffff16565b6120e890919063ffffffff16565b9050600660009054906101000a900473ffffffffffffffffffffffffffffffffffffffff1673ffffffffffffffffffffffffffffffffffffffff166108fc829081150290604051600060405180830381858888f193505050501580156111b6573d6000803e3d6000fd5b503373ffffffffffffffffffffffffffffffffffffffff167f2899dc8c12def1caa9accb64257cf2fd9f960f21bb27a560a757eae3c2ec43c1826040518082815260200191505060405180910390a26000600460003373ffffffffffffffffffffffffffffffffffffffff1673ffffffffffffffffffffffffffffffffffffffff1681526020019081526020016000209050600073ffffffffffffffffffffffffffffffffffffffff168160020160009054906101000a900473ffffffffffffffffffffffffffffffffffffffff1673ffffffffffffffffffffffffffffffffffffffff161415611507576000600460008673ffffffffffffffffffffffffffffffffffffffff1673ffffffffffffffffffffffffffffffffffffffff1681526020019081526020016000206000018054905011801561132257503373ffffffffffffffffffffffffffffffffffffffff168473ffffffffffffffffffffffffffffffffffffffff1614155b1561136b57838160020160006101000a81548173ffffffffffffffffffffffffffffffffffffffff021916908373ffffffffffffffffffffffffffffffffffffffff1602179055505b60008160020160009054906101000a900473ffffffffffffffffffffffffffffffffffffffff16905060005b600381101561150457600073ffffffffffffffffffffffffffffffffffffffff168273ffffffffffffffffffffffffffffffffffffffff16146114f2576114366001600460008573ffffffffffffffffffffffffffffffffffffffff1673ffffffffffffffffffffffffffffffffffffffff168152602001908152602001600020600301836003811061142657fe5b015461220090919063ffffffff16565b600460008473ffffffffffffffffffffffffffffffffffffffff1673ffffffffffffffffffffffffffffffffffffffff168152602001908152602001600020600301826003811061148357fe5b0181905550600460008373ffffffffffffffffffffffffffffffffffffffff1673ffffffffffffffffffffffffffffffffffffffff16815260200190815260200160002060020160009054906101000a900473ffffffffffffffffffffffffffffffffffffffff1691506114f7565b611504565b8080600101915050611397565b50505b600073ffffffffffffffffffffffffffffffffffffffff168160020160009054906101000a900473ffffffffffffffffffffffffffffffffffffffff1673ffffffffffffffffffffffffffffffffffffffff16146118265760008160020160009054906101000a900473ffffffffffffffffffffffffffffffffffffffff16905060005b600381101561182357600073ffffffffffffffffffffffffffffffffffffffff168273ffffffffffffffffffffffffffffffffffffffff16146118115760006116086103e86115fa600085815481106115e057fe5b90600052602060002001543461206290919063ffffffff16565b6120e890919063ffffffff16565b905061165f81600460008673ffffffffffffffffffffffffffffffffffffffff1673ffffffffffffffffffffffffffffffffffffffff1681526020019081526020016000206006015461220090919063ffffffff16565b600460008573ffffffffffffffffffffffffffffffffffffffff1673ffffffffffffffffffffffffffffffffffffffff168152602001908152602001600020600601819055506116fa81600460008673ffffffffffffffffffffffffffffffffffffffff1673ffffffffffffffffffffffffffffffffffffffff1681526020019081526020016000206007015461220090919063ffffffff16565b600460008573ffffffffffffffffffffffffffffffffffffffff1673ffffffffffffffffffffffffffffffffffffffff16815260200190815260200160002060070181905550813373ffffffffffffffffffffffffffffffffffffffff168473ffffffffffffffffffffffffffffffffffffffff167fd41f7e766eebcc7ff42b11ac8691bdf864db4afc0c55e71d629d54edce460d98846040518082815260200191505060405180910390a4600460008473ffffffffffffffffffffffffffffffffffffffff1673ffffffffffffffffffffffffffffffffffffffff16815260200190815260200160002060020160009054906101000a900473ffffffffffffffffffffffffffffffffffffffff16925050611816565b611823565b808060010191505061158b565b50505b60008160000180549050141561188d574281600101819055507f9fd565cd14c3c391679eb0cad12a14dcf7534e9d3462bcb9b67a098a9bbbc24a33604051808273ffffffffffffffffffffffffffffffffffffffff16815260200191505060405180910390a15b600080600061189c86346119f1565b925092509250836000016040518060c001604052808860ff16815260200185815260200134815260200184815260200142815260200183815250908060018154018082558091505060019003906000526020600020906006020160009091909190915060008201518160000160006101000a81548160ff021916908360ff1602179055506020820151816001015560408201518160020155606082015181600301556080820151816004015560a0820151816005015550506119693460015461220090919063ffffffff16565b6001819055503373ffffffffffffffffffffffffffffffffffffffff167f84e02daa69bdb087c9fe8d3041abca495512cb14e723070f6d1d4efface82e5d878534864287604051808760ff168152602001868152602001858152602001848152602001838152602001828152602001965050505050505060405180910390a250505050505050565b60008060006119ff85611d37565b925060038560ff161015611a6e57611a6760038660ff1681548110611a2057fe5b906000526020600020906002020160000154611a596103e8611a4b878961206290919063ffffffff16565b6120e890919063ffffffff16565b61206290919063ffffffff16565b9150611b03565b60068560ff161015611b025760005b60038660ff1681548110611a8d57fe5b906000526020600020906002020160000154811015611b0057611af1611ae26103e8611ad487611ac6888b61220090919063ffffffff16565b61206290919063ffffffff16565b6120e890919063ffffffff16565b8461220090919063ffffffff16565b92508080600101915050611a7d565b505b5b611b4c611b3d6201518060038860ff1681548110611b1d57fe5b90600052602060002090600202016000015461206290919063ffffffff16565b4261220090919063ffffffff16565b90509250925092565b60008181548110611b6257fe5b906000526020600020016000915090505481565b60025481565b6000611c15600460008473ffffffffffffffffffffffffffffffffffffffff1673ffffffffffffffffffffffffffffffffffffffff16815260200190815260200160002060060154600460008573ffffffffffffffffffffffffffffffffffffffff1673ffffffffffffffffffffffffffffffffffffffff1681526020019081526020016000206007015461217790919063ffffffff16565b9050919050565b600047905090565b674563918244f4000081565b600080600090505b600460008473ffffffffffffffffffffffffffffffffffffffff1673ffffffffffffffffffffffffffffffffffffffff16815260200190815260200160002060000180549050811015611d0557611cf6600460008573ffffffffffffffffffffffffffffffffffffffff1673ffffffffffffffffffffffffffffffffffffffff1681526020019081526020016000206000018281548110611cd557fe5b9060005260206000209060060201600201548361220090919063ffffffff16565b91508080600101915050611c38565b50919050565b60015481565b600660009054906101000a900473ffffffffffffffffffffffffffffffffffffffff1681565b6000600554421115611dba57611db3611d8362015180611d75611d656005544261217790919063ffffffff16565b600561206290919063ffffffff16565b6120e890919063ffffffff16565b60038460ff1681548110611d9357fe5b90600052602060002090600202016001015461220090919063ffffffff16565b9050611ddf565b60038260ff1681548110611dca57fe5b90600052602060002090600202016001015490505b919050565b6000600460008373ffffffffffffffffffffffffffffffffffffffff1673ffffffffffffffffffffffffffffffffffffffff168152602001908152602001600020600001805490509050919050565b60008060038360ff1681548110611e4657fe5b906000526020600020906002020160000154915060038360ff1681548110611e6a57fe5b9060005260206000209060020201600101549050915091565b6000806000806000806000600460008a73ffffffffffffffffffffffffffffffffffffffff1673ffffffffffffffffffffffffffffffffffffffff1681526020019081526020016000209050806000018881548110611ede57fe5b906000526020600020906006020160000160009054906101000a900460ff169650806000018881548110611f0e57fe5b9060005260206000209060060201600101549550806000018881548110611f3157fe5b9060005260206000209060060201600201549450806000018881548110611f5457fe5b9060005260206000209060060201600301549350806000018881548110611f7757fe5b9060005260206000209060060201600401549250806000018881548110611f9a57fe5b9060005260206000209060060201600501549150509295509295509295565b60055481565b6000600460008373ffffffffffffffffffffffffffffffffffffffff1673ffffffffffffffffffffffffffffffffffffffff168152602001908152602001600020600101549050919050565b66b1a2bc2ec5000081565b6000600460008373ffffffffffffffffffffffffffffffffffffffff1673ffffffffffffffffffffffffffffffffffffffff168152602001908152602001600020600601549050919050565b60008083141561207557600090506120e2565b600082840290508284828161208657fe5b04146120dd576040517f08c379a00000000000000000000000000000000000000000000000000000000081526004018080602001828103825260218152602001806122896021913960400191505060405180910390fd5b809150505b92915050565b600080821161215f576040517f08c379a000000000000000000000000000000000000000000000000000000000815260040180806020018281038252601a8152602001807f536166654d6174683a206469766973696f6e206279207a65726f00000000000081525060200191505060405180910390fd5b600082848161216a57fe5b0490508091505092915050565b6000828211156121ef576040517f08c379a000000000000000000000000000000000000000000000000000000000815260040180806020018281038252601e8152602001807f536166654d6174683a207375627472616374696f6e206f766572666c6f77000081525060200191505060405180910390fd5b600082840390508091505092915050565b60008082840190508381101561227e576040517f08c379a000000000000000000000000000000000000000000000000000000000815260040180806020018281038252601b8152602001807f536166654d6174683a206164646974696f6e206f766572666c6f77000000000081525060200191505060405180910390fd5b809150509291505056fe536166654d6174683a206d756c7469706c69636174696f6e206f766572666c6f77a2646970667358221220475ad91ea8f641b88e3a0cb4365c4020943efec932bcab36139e985fd58aaf5764736f6c634300060c003300000000000000000000000017fb959b5da8d8998faa5bce89911334b5b992a80000000000000000000000000000000000000000000000000000000060686d7b",
  "immutableReferences": {},
  "source": "// SPDX-License-Identifier: MIT \r\n \r\n /*   BNBFactory - investment platform based on Binance Smart Chain blockchain smart-contract technology. Safe and legit!\r\n *\r\n *  /$$$$$$$  /$$   /$$ /$$$$$$$  /$$$$$$$$                   /$$                                  \r\n * | $$__  $$| $$$ | $$| $$__  $$| $$_____/                  | $$                                  \r\n * | $$  \\ $$| $$$$| $$| $$  \\ $$| $$    /$$$$$$   /$$$$$$$ /$$$$$$    /$$$$$$   /$$$$$$  /$$   /$$\r\n * | $$$$$$$ | $$ $$ $$| $$$$$$$ | $$$$$|____  $$ /$$_____/|_  $$_/   /$$__  $$ /$$__  $$| $$  | $$\r\n * | $$__  $$| $$  $$$$| $$__  $$| $$__/ /$$$$$$$| $$        | $$    | $$  \\ $$| $$  \\__/| $$  | $$\r\n * | $$  \\ $$| $$\\  $$$| $$  \\ $$| $$   /$$__  $$| $$        | $$ /$$| $$  | $$| $$      | $$  | $$\r\n * | $$$$$$$/| $$ \\  $$| $$$$$$$/| $$  |  $$$$$$$|  $$$$$$$  |  $$$$/|  $$$$$$/| $$      |  $$$$$$$\r\n * |_______/ |__/  \\__/|_______/ |__/   \\_______/ \\_______/   \\___/   \\______/ |__/       \\____  $$\r\n *                                                                                        /$$  | $$\r\n *                                                                                       |  $$$$$$/\r\n *                                                                                        \\______/ \r\n *   \r\n *      Website: https://bnbfactory.app                                     \r\n *                                                                          \r\n *                                                                          |\r\n *      Telegram Public Group: https://t.me/bnbfactory                      |\r\n *   |                                                                       |\r\n *   |                                                                       |\r\n *   \r\n *\r\n *   [USAGE INSTRUCTION]\r\n *\r\n *   1) Connect browser extension Metamask (see help: https://academy.binance.com/en/articles/connecting-metamask-to-binance-smart-chain )\r\n *   2) Choose one of the tariff plans, enter the BNB amount (0.05 BNB minimum and 5 BNB maximum)  using our website \"Stake BNB\" button\r\n *   3) Wait for your earnings\r\n *   4) Withdraw earnings any time using our website \"Withdraw\" button\r\n *\r\n *   [INVESTMENT CONDITIONS]\r\n *\r\n *   - Basic interest rate: +0.5% every 24 hours (~0.02% hourly) - only for new deposits\r\n *   - Minimal deposit: 0.05 BNB\r\n *   - Maximum deposit: 5 BNB (Whale proof !!!)\r\n *   - Total income: based on your tarrif plan (from 5% to 8% daily!!!) + Basic interest rate !!!\r\n *   - Earnings every moment, withdraw any time (if you use capitalization of interest you can withdraw only after end of your deposit) \r\n *\r\n *   [AFFILIATE PROGRAM]\r\n *\r\n *   - 3-level referral commission: 5% - 2.5% - 0.5%\r\n *\r\n *   [FUNDS DISTRIBUTION]\r\n *\r\n *   - 82% Platform main balance, participants payouts\r\n *   - 8% Advertising and promotion expenses\r\n *   - 8% Affiliate program bonuses\r\n *   - 2% Support work, technical functioning, administration fee\r\n */\r\n\r\n/**\r\n* A partir de aqui se encontraran comentarios explicativos del codigo que no vienen en el codigo original\r\n*/\r\npragma solidity >=0.4.22 <0.9.0;\r\n\r\ncontract BNBFactory {\r\n\tusing SafeMath for uint256;\r\n\r\n\tuint256 constant public INVEST_MIN_AMOUNT = 0.05 ether;\r\n    uint256 constant public INVEST_MAX_AMOUNT = 5 ether;\r\n\tuint256[] public REFERRAL_PERCENTS = [50, 25, 5];\r\n\tuint256 constant public PROJECT_FEE = 100;\r\n\tuint256 constant public PERCENT_STEP = 5;\r\n\tuint256 constant public PERCENTS_DIVIDER = 1000;\r\n\tuint256 constant public TIME_STEP = 1 days;\r\n\r\n\tuint256 public totalStaked;\r\n\tuint256 public totalRefBonus;\r\n\r\n    struct Plan {\r\n        uint256 time;\r\n        uint256 percent;\r\n    }\r\n\r\n    Plan[] internal plans;\r\n\r\n\t// Struct que guarda informacion del deposito\r\n\tstruct Deposit {\r\n        uint8 plan; // Identificador del plan elegido\r\n\t\tuint256 percent; // Porcentaje con el que se deposito en ese plan\r\n\t\tuint256 amount; // Cantidad que se deposito\r\n\t\tuint256 profit; // Cantidad a devolver\r\n\t\tuint256 start; // fecha (en segundos) en el que se deposito\r\n\t\tuint256 finish; // fecha (en segundos) en el que se podra sacar (de estar bloqueada la cantidad)\r\n\t}\r\n\r\n\tstruct User {\r\n\t\tDeposit[] deposits;\r\n\t\tuint256 checkpoint;\r\n\t\taddress referrer;\r\n\t\tuint256[3] levels;\r\n\t\tuint256 bonus;\r\n\t\tuint256 totalBonus;\r\n\t}\r\n\r\n\tmapping (address => User) internal users;\r\n\r\n\tuint256 public startUNIX;\r\n\taddress payable public commissionWallet;\r\n\r\n\tevent Newbie(address user);\r\n\tevent NewDeposit(address indexed user, uint8 plan, uint256 percent, uint256 amount, uint256 profit, uint256 start, uint256 finish);\r\n\tevent Withdrawn(address indexed user, uint256 amount);\r\n\tevent RefBonus(address indexed referrer, address indexed referral, uint256 indexed level, uint256 amount);\r\n\tevent FeePayed(address indexed user, uint256 totalAmount);\r\n\r\n\tconstructor(address payable wallet, uint256 startDate) public {\r\n\t\trequire(!isContract(wallet));\r\n\t\trequire(startDate > 0);\r\n\t\tcommissionWallet = wallet;\r\n\t\tstartUNIX = startDate;\r\n\r\n        plans.push(Plan(14, 50));\r\n        plans.push(Plan(21, 65));\r\n        plans.push(Plan(28, 80));\r\n        plans.push(Plan(14, 50));\r\n        plans.push(Plan(21, 65));\r\n        plans.push(Plan(28, 80));\r\n\t}\r\n\t// payable hace que para llamar a esta funcion se le puede pagar un coste junto a la llamada\r\n\t// El coste pagado (se entiende) se anade implicitamente al balance del contrato\r\n\t/**\r\n\t* invest es la funcion que incrementa los bonuses de los referidos, crea un nuevo User y lo guarda en el mapa \r\n\t* de no existir este y guarda el deposito pedido en funcion del plan.\r\n\t* params: referrer -> el address del referido\r\n\t* params: plan -> Byte que indica el plan elegido\r\n\t*/\r\n\tfunction invest(address referrer, uint8 plan) public payable {\r\n\t\trequire(msg.value >= INVEST_MIN_AMOUNT);\r\n        require(msg.value <= INVEST_MAX_AMOUNT);\r\n        require(plan < 6, \"Invalid plan\");\r\n\r\n        // Comision que se lleva el creador del contrato (10 % por investment)\r\n\t\tuint256 fee = msg.value.mul(PROJECT_FEE).div(PERCENTS_DIVIDER);\r\n\t\tcommissionWallet.transfer(fee);\r\n\t\temit FeePayed(msg.sender, fee);\r\n\r\n\t\t//Creacion del nuevo usuario (si no existe), si existe se guarda en user\r\n\t\tUser storage user = users[msg.sender];\r\n\r\n\t\t// Si no tiene referrer (por que es nuevo o porque en su momento)\r\n\t\tif (user.referrer == address(0)) {\r\n\t\t\t// Si el refferer ya tiene investment y el referrer no es el user que llama a la funcion\r\n\t\t\tif (users[referrer].deposits.length > 0 && referrer != msg.sender) {\r\n\t\t\t\t//asigna el referrer con el que se ha llamadao la funcion\r\n\t\t\t\tuser.referrer = referrer;\r\n\t\t\t}\r\n\r\n\t\t\t// Adicion de referidos, 3 niveles de referrers\r\n\t\t\taddress upline = user.referrer;\r\n\t\t\tfor (uint256 i = 0; i < 3; i++) {\r\n\t\t\t\tif (upline != address(0)) {\r\n\t\t\t\t\tusers[upline].levels[i] = users[upline].levels[i].add(1); // Por que le anade uno?\r\n\t\t\t\t\tupline = users[upline].referrer; // Avanzar al siguiente referrer\r\n\t\t\t\t} else break;\r\n\t\t\t}\r\n\t\t}\r\n\r\n\t\tif (user.referrer != address(0)) {\r\n\r\n\t\t\t// Aumento de los bonus amount a cada referrer en funcion de su nivel\r\n\t\t\taddress upline = user.referrer;\r\n\t\t\tfor (uint256 i = 0; i < 3; i++) { // Tres iteraciones, tres niveles de referral\r\n\t\t\t\tif (upline != address(0)) {\r\n\t\t\t\t\tuint256 amount = msg.value.mul(REFERRAL_PERCENTS[i]).div(PERCENTS_DIVIDER); // Cuanto mas bajo el nivel\r\n\t\t\t\t\tusers[upline].bonus = users[upline].bonus.add(amount);\r\n\t\t\t\t\tusers[upline].totalBonus = users[upline].totalBonus.add(amount); // Esta variable (totalBonus) no se utiliza, asignacion y memoria inservibles\r\n\t\t\t\t\temit RefBonus(upline, msg.sender, i, amount); //Evento emitido\r\n\t\t\t\t\tupline = users[upline].referrer; // Avanzar al siguiente referral\r\n\t\t\t\t} else break;\r\n\t\t\t}\r\n\r\n\t\t}\r\n\r\n\t\t// Si el usuario no tiene depositos\r\n\t\tif (user.deposits.length == 0) {\r\n\t\t\tuser.checkpoint = block.timestamp; // Timestamp en segundos\r\n\t\t\temit Newbie(msg.sender);\r\n\t\t}\r\n\r\n\t\t(uint256 percent, uint256 profit, uint256 finish) = getResult(plan, msg.value); // Calcula los valores a retornar del plan elegido\r\n\t\tuser.deposits.push(Deposit(plan, percent, msg.value, profit, block.timestamp, finish)); // Pusheo a la lista del Objeto Deposit\r\n\r\n\t\ttotalStaked = totalStaked.add(msg.value); // Actualizacion de la variable que tiene el bnb stakeado del contrato (No se decrementa)\r\n\t\temit NewDeposit(msg.sender, plan, percent, msg.value, profit, block.timestamp, finish); // Emision del evento\r\n\t}\r\n\r\n\tfunction withdraw() public {\r\n\t\tUser storage user = users[msg.sender];\r\n\r\n\t\tuint256 totalAmount = getUserDividends(msg.sender);\r\n\r\n\t\tuint256 referralBonus = getUserReferralBonus(msg.sender);\r\n\t\tif (referralBonus > 0) {\r\n\t\t\tuser.bonus = 0;\r\n\t\t\ttotalAmount = totalAmount.add(referralBonus);\r\n\t\t}\r\n\r\n\t\trequire(totalAmount > 0, \"User has no dividends\");\r\n\r\n\t\tuint256 contractBalance = address(this).balance;\r\n\t\tif (contractBalance < totalAmount) {\r\n\t\t\ttotalAmount = contractBalance;\r\n\t\t}\r\n\r\n\t\tuser.checkpoint = block.timestamp;\r\n\r\n\t\tmsg.sender.transfer(totalAmount);\r\n\r\n\t\temit Withdrawn(msg.sender, totalAmount);\r\n\r\n\t}\r\n\r\n\tfunction getContractBalance() public view returns (uint256) {\r\n\t\treturn address(this).balance;\r\n\t}\r\n\r\n\tfunction getPlanInfo(uint8 plan) public view returns(uint256 time, uint256 percent) {\r\n\t\ttime = plans[plan].time;\r\n\t\tpercent = plans[plan].percent;\r\n\t}\r\n\r\n\tfunction getPercent(uint8 plan) public view returns (uint256) {\r\n\t\tif (block.timestamp > startUNIX) {\r\n\t\t\treturn plans[plan].percent.add(PERCENT_STEP.mul(block.timestamp.sub(startUNIX)).div(TIME_STEP));\r\n\t\t} else {\r\n\t\t\treturn plans[plan].percent;\r\n\t\t}\r\n    }\r\n\r\n\tfunction getResult(uint8 plan, uint256 deposit) public view returns (uint256 percent, uint256 profit, uint256 finish) {\r\n\t\tpercent = getPercent(plan);\r\n\r\n\t\tif (plan < 3) {\r\n\t\t\tprofit = deposit.mul(percent).div(PERCENTS_DIVIDER).mul(plans[plan].time);\r\n\t\t} else if (plan < 6) {\r\n\t\t\tfor (uint256 i = 0; i < plans[plan].time; i++) {\r\n\t\t\t\tprofit = profit.add((deposit.add(profit)).mul(percent).div(PERCENTS_DIVIDER));\r\n\t\t\t}\r\n\t\t}\r\n\r\n\t\tfinish = block.timestamp.add(plans[plan].time.mul(TIME_STEP));\r\n\t}\r\n\r\n\tfunction getUserDividends(address userAddress) public view returns (uint256) {\r\n\t\tUser storage user = users[userAddress];\r\n\r\n\t\tuint256 totalAmount;\r\n\r\n\t\tfor (uint256 i = 0; i < user.deposits.length; i++) {\r\n\t\t\tif (user.checkpoint < user.deposits[i].finish) {\r\n\t\t\t\tif (user.deposits[i].plan < 3) {\r\n\t\t\t\t\tuint256 share = user.deposits[i].amount.mul(user.deposits[i].percent).div(PERCENTS_DIVIDER);\r\n\t\t\t\t\tuint256 from = user.deposits[i].start > user.checkpoint ? user.deposits[i].start : user.checkpoint;\r\n\t\t\t\t\tuint256 to = user.deposits[i].finish < block.timestamp ? user.deposits[i].finish : block.timestamp;\r\n\t\t\t\t\tif (from < to) {\r\n\t\t\t\t\t\ttotalAmount = totalAmount.add(share.mul(to.sub(from)).div(TIME_STEP));\r\n\t\t\t\t\t}\r\n\t\t\t\t} else if (block.timestamp > user.deposits[i].finish) {\r\n\t\t\t\t\ttotalAmount = totalAmount.add(user.deposits[i].profit);\r\n\t\t\t\t}\r\n\t\t\t}\r\n\t\t}\r\n\r\n\t\treturn totalAmount;\r\n\t}\r\n\r\n\tfunction getUserCheckpoint(address userAddress) public view returns(uint256) {\r\n\t\treturn users[userAddress].checkpoint;\r\n\t}\r\n\r\n\tfunction getUserReferrer(address userAddress) public view returns(address) {\r\n\t\treturn users[userAddress].referrer;\r\n\t}\r\n\r\n\tfunction getUserDownlineCount(address userAddress) public view returns(uint256, uint256, uint256) {\r\n\t\treturn (users[userAddress].levels[0], users[userAddress].levels[1], users[userAddress].levels[2]);\r\n\t}\r\n\r\n\tfunction getUserReferralBonus(address userAddress) public view returns(uint256) {\r\n\t\treturn users[userAddress].bonus;\r\n\t}\r\n\r\n\tfunction getUserReferralTotalBonus(address userAddress) public view returns(uint256) {\r\n\t\treturn users[userAddress].totalBonus;\r\n\t}\r\n\r\n\tfunction getUserReferralWithdrawn(address userAddress) public view returns(uint256) {\r\n\t\treturn users[userAddress].totalBonus.sub(users[userAddress].bonus);\r\n\t}\r\n\r\n\tfunction getUserAvailable(address userAddress) public view returns(uint256) {\r\n\t\treturn getUserReferralBonus(userAddress).add(getUserDividends(userAddress));\r\n\t}\r\n\r\n\tfunction getUserAmountOfDeposits(address userAddress) public view returns(uint256) {\r\n\t\treturn users[userAddress].deposits.length;\r\n\t}\r\n\r\n\tfunction getUserTotalDeposits(address userAddress) public view returns(uint256 amount) {\r\n\t\tfor (uint256 i = 0; i < users[userAddress].deposits.length; i++) {\r\n\t\t\tamount = amount.add(users[userAddress].deposits[i].amount);\r\n\t\t}\r\n\t}\r\n\r\n\tfunction getUserDepositInfo(address userAddress, uint256 index) public view returns(uint8 plan, uint256 percent, uint256 amount, uint256 profit, uint256 start, uint256 finish) {\r\n\t    User storage user = users[userAddress];\r\n\r\n\t\tplan = user.deposits[index].plan;\r\n\t\tpercent = user.deposits[index].percent;\r\n\t\tamount = user.deposits[index].amount;\r\n\t\tprofit = user.deposits[index].profit;\r\n\t\tstart = user.deposits[index].start;\r\n\t\tfinish = user.deposits[index].finish;\r\n\t}\r\n\r\n\tfunction isContract(address addr) internal view returns (bool) {\r\n        uint size;\r\n        assembly { size := extcodesize(addr) }\r\n        return size > 0;\r\n    }\r\n}\r\n\r\nlibrary SafeMath {\r\n\r\n    function add(uint256 a, uint256 b) internal pure returns (uint256) {\r\n        uint256 c = a + b;\r\n        require(c >= a, \"SafeMath: addition overflow\");\r\n\r\n        return c;\r\n    }\r\n\r\n    function sub(uint256 a, uint256 b) internal pure returns (uint256) {\r\n        require(b <= a, \"SafeMath: subtraction overflow\");\r\n        uint256 c = a - b;\r\n\r\n        return c;\r\n    }\r\n\r\n    function mul(uint256 a, uint256 b) internal pure returns (uint256) {\r\n        if (a == 0) {\r\n            return 0;\r\n        }\r\n\r\n        uint256 c = a * b;\r\n        require(c / a == b, \"SafeMath: multiplication overflow\");\r\n\r\n        return c;\r\n    }\r\n\r\n    function div(uint256 a, uint256 b) internal pure returns (uint256) {\r\n        require(b > 0, \"SafeMath: division by zero\");\r\n        uint256 c = a / b;\r\n\r\n        return c;\r\n    }\r\n}",
  "sourcePath": "C:/Users/diego/cakestake/contracts/bnbfactory.sol",
  "compiler": {
    "name": "solc",
    "version": "0.6.12+commit.27d51765.Emscripten.clang"
  },
  "schemaVersion": "3.3.4",
  "updatedAt": "2021-04-03T13:12:03.043Z",
  "devdoc": {
    "kind": "dev",
    "methods": {},
    "version": 1
  },
  "userdoc": {
    "kind": "user",
    "methods": {
      "invest(address,uint8)": {
        "notice": "invest es la funcion que incrementa los bonuses de los referidos, crea un nuevo User y lo guarda en el mapa  de no existir este y guarda el deposito pedido en funcion del plan. params: referrer -> el address del referido params: plan -> Byte que indica el plan elegido"
      }
    },
    "version": 1
  }
}